{
	"data": {
		"bytecode": {
			"linkReferences": {},
			"object": "6080604052348015600e575f80fd5b506108a68061001c5f395ff3fe608060405234801561000f575f80fd5b506004361061009c575f3560e01c80639554d3f5116100645780639554d3f514610120578063aec2393b1461013c578063c47f00271461015a578063d832d92f14610176578063eb01d83b146101945761009c565b806306fdde03146100a057806312874688146100be5780633e109a19146100da578063614d44d8146100f85780638cb3938514610102575b5f80fd5b6100a86101b2565b6040516100b5919061034a565b60405180910390f35b6100d860048036038101906100d391906103ae565b61023d565b005b6100e2610247565b6040516100ef91906103e8565b60405180910390f35b61010061024d565b005b61010a610294565b60405161011791906103e8565b60405180910390f35b61013a600480360381019061013591906103ae565b61029d565b005b6101446102a7565b60405161015191906103e8565b60405180910390f35b610174600480360381019061016f919061052d565b6102ad565b005b61017e6102bf565b60405161018b919061058e565b60405180910390f35b61019c6102d1565b6040516101a991906103e8565b60405180910390f35b5f80546101be906105d4565b80601f01602080910402602001604051908101604052809291908181526020018280546101ea906105d4565b80156102355780601f1061020c57610100808354040283529160200191610235565b820191905f5260205f20905b81548152906001019060200180831161021857829003601f168201915b505050505081565b8060038190555050565b60035481565b6003546001541015610277575f60025f6101000a81548160ff021916908315150217905550610292565b600160025f6101000a81548160ff0219169083151502179055505b565b5f600354905090565b8060018190555050565b60015481565b805f90816102bb91906107a1565b5050565b60025f9054906101000a900460ff1681565b5f600154905090565b5f81519050919050565b5f82825260208201905092915050565b8281835e5f83830152505050565b5f601f19601f8301169050919050565b5f61031c826102da565b61032681856102e4565b93506103368185602086016102f4565b61033f81610302565b840191505092915050565b5f6020820190508181035f8301526103628184610312565b905092915050565b5f604051905090565b5f80fd5b5f80fd5b5f819050919050565b61038d8161037b565b8114610397575f80fd5b50565b5f813590506103a881610384565b92915050565b5f602082840312156103c3576103c2610373565b5b5f6103d08482850161039a565b91505092915050565b6103e28161037b565b82525050565b5f6020820190506103fb5f8301846103d9565b92915050565b5f80fd5b5f80fd5b7f4e487b71000000000000000000000000000000000000000000000000000000005f52604160045260245ffd5b61043f82610302565b810181811067ffffffffffffffff8211171561045e5761045d610409565b5b80604052505050565b5f61047061036a565b905061047c8282610436565b919050565b5f67ffffffffffffffff82111561049b5761049a610409565b5b6104a482610302565b9050602081019050919050565b828183375f83830152505050565b5f6104d16104cc84610481565b610467565b9050828152602081018484840111156104ed576104ec610405565b5b6104f88482856104b1565b509392505050565b5f82601f83011261051457610513610401565b5b81356105248482602086016104bf565b91505092915050565b5f6020828403121561054257610541610373565b5b5f82013567ffffffffffffffff81111561055f5761055e610377565b5b61056b84828501610500565b91505092915050565b5f8115159050919050565b61058881610574565b82525050565b5f6020820190506105a15f83018461057f565b92915050565b7f4e487b71000000000000000000000000000000000000000000000000000000005f52602260045260245ffd5b5f60028204905060018216806105eb57607f821691505b6020821081036105fe576105fd6105a7565b5b50919050565b5f819050815f5260205f209050919050565b5f6020601f8301049050919050565b5f82821b905092915050565b5f600883026106607fffffffffffffffffffffffffffffffffffffffffffffffffffffffffffffffff82610625565b61066a8683610625565b95508019841693508086168417925050509392505050565b5f819050919050565b5f6106a56106a061069b8461037b565b610682565b61037b565b9050919050565b5f819050919050565b6106be8361068b565b6106d26106ca826106ac565b848454610631565b825550505050565b5f90565b6106e66106da565b6106f18184846106b5565b505050565b5b81811015610714576107095f826106de565b6001810190506106f7565b5050565b601f8211156107595761072a81610604565b61073384610616565b81016020851015610742578190505b61075661074e85610616565b8301826106f6565b50505b505050565b5f82821c905092915050565b5f6107795f198460080261075e565b1980831691505092915050565b5f610791838361076a565b9150826002028217905092915050565b6107aa826102da565b67ffffffffffffffff8111156107c3576107c2610409565b5b6107cd82546105d4565b6107d8828285610718565b5f60209050601f831160018114610809575f84156107f7578287015190505b6108018582610786565b865550610868565b601f19841661081786610604565b5f5b8281101561083e57848901518255600182019150602085019450602081019050610819565b8683101561085b5784890151610857601f89168261076a565b8355505b6001600288020188555050505b50505050505056fea26469706673582212201c8992519df6d478730f33997cde26f5c23a704fb8c88c669921074f14fb264064736f6c63430008190033",
			"opcodes": "PUSH1 0x80 PUSH1 0x40 MSTORE CALLVALUE DUP1 ISZERO PUSH1 0xE JUMPI PUSH0 DUP1 REVERT JUMPDEST POP PUSH2 0x8A6 DUP1 PUSH2 0x1C PUSH0 CODECOPY PUSH0 RETURN INVALID PUSH1 0x80 PUSH1 0x40 MSTORE CALLVALUE DUP1 ISZERO PUSH2 0xF JUMPI PUSH0 DUP1 REVERT JUMPDEST POP PUSH1 0x4 CALLDATASIZE LT PUSH2 0x9C JUMPI PUSH0 CALLDATALOAD PUSH1 0xE0 SHR DUP1 PUSH4 0x9554D3F5 GT PUSH2 0x64 JUMPI DUP1 PUSH4 0x9554D3F5 EQ PUSH2 0x120 JUMPI DUP1 PUSH4 0xAEC2393B EQ PUSH2 0x13C JUMPI DUP1 PUSH4 0xC47F0027 EQ PUSH2 0x15A JUMPI DUP1 PUSH4 0xD832D92F EQ PUSH2 0x176 JUMPI DUP1 PUSH4 0xEB01D83B EQ PUSH2 0x194 JUMPI PUSH2 0x9C JUMP JUMPDEST DUP1 PUSH4 0x6FDDE03 EQ PUSH2 0xA0 JUMPI DUP1 PUSH4 0x12874688 EQ PUSH2 0xBE JUMPI DUP1 PUSH4 0x3E109A19 EQ PUSH2 0xDA JUMPI DUP1 PUSH4 0x614D44D8 EQ PUSH2 0xF8 JUMPI DUP1 PUSH4 0x8CB39385 EQ PUSH2 0x102 JUMPI JUMPDEST PUSH0 DUP1 REVERT JUMPDEST PUSH2 0xA8 PUSH2 0x1B2 JUMP JUMPDEST PUSH1 0x40 MLOAD PUSH2 0xB5 SWAP2 SWAP1 PUSH2 0x34A JUMP JUMPDEST PUSH1 0x40 MLOAD DUP1 SWAP2 SUB SWAP1 RETURN JUMPDEST PUSH2 0xD8 PUSH1 0x4 DUP1 CALLDATASIZE SUB DUP2 ADD SWAP1 PUSH2 0xD3 SWAP2 SWAP1 PUSH2 0x3AE JUMP JUMPDEST PUSH2 0x23D JUMP JUMPDEST STOP JUMPDEST PUSH2 0xE2 PUSH2 0x247 JUMP JUMPDEST PUSH1 0x40 MLOAD PUSH2 0xEF SWAP2 SWAP1 PUSH2 0x3E8 JUMP JUMPDEST PUSH1 0x40 MLOAD DUP1 SWAP2 SUB SWAP1 RETURN JUMPDEST PUSH2 0x100 PUSH2 0x24D JUMP JUMPDEST STOP JUMPDEST PUSH2 0x10A PUSH2 0x294 JUMP JUMPDEST PUSH1 0x40 MLOAD PUSH2 0x117 SWAP2 SWAP1 PUSH2 0x3E8 JUMP JUMPDEST PUSH1 0x40 MLOAD DUP1 SWAP2 SUB SWAP1 RETURN JUMPDEST PUSH2 0x13A PUSH1 0x4 DUP1 CALLDATASIZE SUB DUP2 ADD SWAP1 PUSH2 0x135 SWAP2 SWAP1 PUSH2 0x3AE JUMP JUMPDEST PUSH2 0x29D JUMP JUMPDEST STOP JUMPDEST PUSH2 0x144 PUSH2 0x2A7 JUMP JUMPDEST PUSH1 0x40 MLOAD PUSH2 0x151 SWAP2 SWAP1 PUSH2 0x3E8 JUMP JUMPDEST PUSH1 0x40 MLOAD DUP1 SWAP2 SUB SWAP1 RETURN JUMPDEST PUSH2 0x174 PUSH1 0x4 DUP1 CALLDATASIZE SUB DUP2 ADD SWAP1 PUSH2 0x16F SWAP2 SWAP1 PUSH2 0x52D JUMP JUMPDEST PUSH2 0x2AD JUMP JUMPDEST STOP JUMPDEST PUSH2 0x17E PUSH2 0x2BF JUMP JUMPDEST PUSH1 0x40 MLOAD PUSH2 0x18B SWAP2 SWAP1 PUSH2 0x58E JUMP JUMPDEST PUSH1 0x40 MLOAD DUP1 SWAP2 SUB SWAP1 RETURN JUMPDEST PUSH2 0x19C PUSH2 0x2D1 JUMP JUMPDEST PUSH1 0x40 MLOAD PUSH2 0x1A9 SWAP2 SWAP1 PUSH2 0x3E8 JUMP JUMPDEST PUSH1 0x40 MLOAD DUP1 SWAP2 SUB SWAP1 RETURN JUMPDEST PUSH0 DUP1 SLOAD PUSH2 0x1BE SWAP1 PUSH2 0x5D4 JUMP JUMPDEST DUP1 PUSH1 0x1F ADD PUSH1 0x20 DUP1 SWAP2 DIV MUL PUSH1 0x20 ADD PUSH1 0x40 MLOAD SWAP1 DUP2 ADD PUSH1 0x40 MSTORE DUP1 SWAP3 SWAP2 SWAP1 DUP2 DUP2 MSTORE PUSH1 0x20 ADD DUP3 DUP1 SLOAD PUSH2 0x1EA SWAP1 PUSH2 0x5D4 JUMP JUMPDEST DUP1 ISZERO PUSH2 0x235 JUMPI DUP1 PUSH1 0x1F LT PUSH2 0x20C JUMPI PUSH2 0x100 DUP1 DUP4 SLOAD DIV MUL DUP4 MSTORE SWAP2 PUSH1 0x20 ADD SWAP2 PUSH2 0x235 JUMP JUMPDEST DUP3 ADD SWAP2 SWAP1 PUSH0 MSTORE PUSH1 0x20 PUSH0 KECCAK256 SWAP1 JUMPDEST DUP2 SLOAD DUP2 MSTORE SWAP1 PUSH1 0x1 ADD SWAP1 PUSH1 0x20 ADD DUP1 DUP4 GT PUSH2 0x218 JUMPI DUP3 SWAP1 SUB PUSH1 0x1F AND DUP3 ADD SWAP2 JUMPDEST POP POP POP POP POP DUP2 JUMP JUMPDEST DUP1 PUSH1 0x3 DUP2 SWAP1 SSTORE POP POP JUMP JUMPDEST PUSH1 0x3 SLOAD DUP2 JUMP JUMPDEST PUSH1 0x3 SLOAD PUSH1 0x1 SLOAD LT ISZERO PUSH2 0x277 JUMPI PUSH0 PUSH1 0x2 PUSH0 PUSH2 0x100 EXP DUP2 SLOAD DUP2 PUSH1 0xFF MUL NOT AND SWAP1 DUP4 ISZERO ISZERO MUL OR SWAP1 SSTORE POP PUSH2 0x292 JUMP JUMPDEST PUSH1 0x1 PUSH1 0x2 PUSH0 PUSH2 0x100 EXP DUP2 SLOAD DUP2 PUSH1 0xFF MUL NOT AND SWAP1 DUP4 ISZERO ISZERO MUL OR SWAP1 SSTORE POP JUMPDEST JUMP JUMPDEST PUSH0 PUSH1 0x3 SLOAD SWAP1 POP SWAP1 JUMP JUMPDEST DUP1 PUSH1 0x1 DUP2 SWAP1 SSTORE POP POP JUMP JUMPDEST PUSH1 0x1 SLOAD DUP2 JUMP JUMPDEST DUP1 PUSH0 SWAP1 DUP2 PUSH2 0x2BB SWAP2 SWAP1 PUSH2 0x7A1 JUMP JUMPDEST POP POP JUMP JUMPDEST PUSH1 0x2 PUSH0 SWAP1 SLOAD SWAP1 PUSH2 0x100 EXP SWAP1 DIV PUSH1 0xFF AND DUP2 JUMP JUMPDEST PUSH0 PUSH1 0x1 SLOAD SWAP1 POP SWAP1 JUMP JUMPDEST PUSH0 DUP2 MLOAD SWAP1 POP SWAP2 SWAP1 POP JUMP JUMPDEST PUSH0 DUP3 DUP3 MSTORE PUSH1 0x20 DUP3 ADD SWAP1 POP SWAP3 SWAP2 POP POP JUMP JUMPDEST DUP3 DUP2 DUP4 MCOPY PUSH0 DUP4 DUP4 ADD MSTORE POP POP POP JUMP JUMPDEST PUSH0 PUSH1 0x1F NOT PUSH1 0x1F DUP4 ADD AND SWAP1 POP SWAP2 SWAP1 POP JUMP JUMPDEST PUSH0 PUSH2 0x31C DUP3 PUSH2 0x2DA JUMP JUMPDEST PUSH2 0x326 DUP2 DUP6 PUSH2 0x2E4 JUMP JUMPDEST SWAP4 POP PUSH2 0x336 DUP2 DUP6 PUSH1 0x20 DUP7 ADD PUSH2 0x2F4 JUMP JUMPDEST PUSH2 0x33F DUP2 PUSH2 0x302 JUMP JUMPDEST DUP5 ADD SWAP2 POP POP SWAP3 SWAP2 POP POP JUMP JUMPDEST PUSH0 PUSH1 0x20 DUP3 ADD SWAP1 POP DUP2 DUP2 SUB PUSH0 DUP4 ADD MSTORE PUSH2 0x362 DUP2 DUP5 PUSH2 0x312 JUMP JUMPDEST SWAP1 POP SWAP3 SWAP2 POP POP JUMP JUMPDEST PUSH0 PUSH1 0x40 MLOAD SWAP1 POP SWAP1 JUMP JUMPDEST PUSH0 DUP1 REVERT JUMPDEST PUSH0 DUP1 REVERT JUMPDEST PUSH0 DUP2 SWAP1 POP SWAP2 SWAP1 POP JUMP JUMPDEST PUSH2 0x38D DUP2 PUSH2 0x37B JUMP JUMPDEST DUP2 EQ PUSH2 0x397 JUMPI PUSH0 DUP1 REVERT JUMPDEST POP JUMP JUMPDEST PUSH0 DUP2 CALLDATALOAD SWAP1 POP PUSH2 0x3A8 DUP2 PUSH2 0x384 JUMP JUMPDEST SWAP3 SWAP2 POP POP JUMP JUMPDEST PUSH0 PUSH1 0x20 DUP3 DUP5 SUB SLT ISZERO PUSH2 0x3C3 JUMPI PUSH2 0x3C2 PUSH2 0x373 JUMP JUMPDEST JUMPDEST PUSH0 PUSH2 0x3D0 DUP5 DUP3 DUP6 ADD PUSH2 0x39A JUMP JUMPDEST SWAP2 POP POP SWAP3 SWAP2 POP POP JUMP JUMPDEST PUSH2 0x3E2 DUP2 PUSH2 0x37B JUMP JUMPDEST DUP3 MSTORE POP POP JUMP JUMPDEST PUSH0 PUSH1 0x20 DUP3 ADD SWAP1 POP PUSH2 0x3FB PUSH0 DUP4 ADD DUP5 PUSH2 0x3D9 JUMP JUMPDEST SWAP3 SWAP2 POP POP JUMP JUMPDEST PUSH0 DUP1 REVERT JUMPDEST PUSH0 DUP1 REVERT JUMPDEST PUSH32 0x4E487B7100000000000000000000000000000000000000000000000000000000 PUSH0 MSTORE PUSH1 0x41 PUSH1 0x4 MSTORE PUSH1 0x24 PUSH0 REVERT JUMPDEST PUSH2 0x43F DUP3 PUSH2 0x302 JUMP JUMPDEST DUP2 ADD DUP2 DUP2 LT PUSH8 0xFFFFFFFFFFFFFFFF DUP3 GT OR ISZERO PUSH2 0x45E JUMPI PUSH2 0x45D PUSH2 0x409 JUMP JUMPDEST JUMPDEST DUP1 PUSH1 0x40 MSTORE POP POP POP JUMP JUMPDEST PUSH0 PUSH2 0x470 PUSH2 0x36A JUMP JUMPDEST SWAP1 POP PUSH2 0x47C DUP3 DUP3 PUSH2 0x436 JUMP JUMPDEST SWAP2 SWAP1 POP JUMP JUMPDEST PUSH0 PUSH8 0xFFFFFFFFFFFFFFFF DUP3 GT ISZERO PUSH2 0x49B JUMPI PUSH2 0x49A PUSH2 0x409 JUMP JUMPDEST JUMPDEST PUSH2 0x4A4 DUP3 PUSH2 0x302 JUMP JUMPDEST SWAP1 POP PUSH1 0x20 DUP2 ADD SWAP1 POP SWAP2 SWAP1 POP JUMP JUMPDEST DUP3 DUP2 DUP4 CALLDATACOPY PUSH0 DUP4 DUP4 ADD MSTORE POP POP POP JUMP JUMPDEST PUSH0 PUSH2 0x4D1 PUSH2 0x4CC DUP5 PUSH2 0x481 JUMP JUMPDEST PUSH2 0x467 JUMP JUMPDEST SWAP1 POP DUP3 DUP2 MSTORE PUSH1 0x20 DUP2 ADD DUP5 DUP5 DUP5 ADD GT ISZERO PUSH2 0x4ED JUMPI PUSH2 0x4EC PUSH2 0x405 JUMP JUMPDEST JUMPDEST PUSH2 0x4F8 DUP5 DUP3 DUP6 PUSH2 0x4B1 JUMP JUMPDEST POP SWAP4 SWAP3 POP POP POP JUMP JUMPDEST PUSH0 DUP3 PUSH1 0x1F DUP4 ADD SLT PUSH2 0x514 JUMPI PUSH2 0x513 PUSH2 0x401 JUMP JUMPDEST JUMPDEST DUP2 CALLDATALOAD PUSH2 0x524 DUP5 DUP3 PUSH1 0x20 DUP7 ADD PUSH2 0x4BF JUMP JUMPDEST SWAP2 POP POP SWAP3 SWAP2 POP POP JUMP JUMPDEST PUSH0 PUSH1 0x20 DUP3 DUP5 SUB SLT ISZERO PUSH2 0x542 JUMPI PUSH2 0x541 PUSH2 0x373 JUMP JUMPDEST JUMPDEST PUSH0 DUP3 ADD CALLDATALOAD PUSH8 0xFFFFFFFFFFFFFFFF DUP2 GT ISZERO PUSH2 0x55F JUMPI PUSH2 0x55E PUSH2 0x377 JUMP JUMPDEST JUMPDEST PUSH2 0x56B DUP5 DUP3 DUP6 ADD PUSH2 0x500 JUMP JUMPDEST SWAP2 POP POP SWAP3 SWAP2 POP POP JUMP JUMPDEST PUSH0 DUP2 ISZERO ISZERO SWAP1 POP SWAP2 SWAP1 POP JUMP JUMPDEST PUSH2 0x588 DUP2 PUSH2 0x574 JUMP JUMPDEST DUP3 MSTORE POP POP JUMP JUMPDEST PUSH0 PUSH1 0x20 DUP3 ADD SWAP1 POP PUSH2 0x5A1 PUSH0 DUP4 ADD DUP5 PUSH2 0x57F JUMP JUMPDEST SWAP3 SWAP2 POP POP JUMP JUMPDEST PUSH32 0x4E487B7100000000000000000000000000000000000000000000000000000000 PUSH0 MSTORE PUSH1 0x22 PUSH1 0x4 MSTORE PUSH1 0x24 PUSH0 REVERT JUMPDEST PUSH0 PUSH1 0x2 DUP3 DIV SWAP1 POP PUSH1 0x1 DUP3 AND DUP1 PUSH2 0x5EB JUMPI PUSH1 0x7F DUP3 AND SWAP2 POP JUMPDEST PUSH1 0x20 DUP3 LT DUP2 SUB PUSH2 0x5FE JUMPI PUSH2 0x5FD PUSH2 0x5A7 JUMP JUMPDEST JUMPDEST POP SWAP2 SWAP1 POP JUMP JUMPDEST PUSH0 DUP2 SWAP1 POP DUP2 PUSH0 MSTORE PUSH1 0x20 PUSH0 KECCAK256 SWAP1 POP SWAP2 SWAP1 POP JUMP JUMPDEST PUSH0 PUSH1 0x20 PUSH1 0x1F DUP4 ADD DIV SWAP1 POP SWAP2 SWAP1 POP JUMP JUMPDEST PUSH0 DUP3 DUP3 SHL SWAP1 POP SWAP3 SWAP2 POP POP JUMP JUMPDEST PUSH0 PUSH1 0x8 DUP4 MUL PUSH2 0x660 PUSH32 0xFFFFFFFFFFFFFFFFFFFFFFFFFFFFFFFFFFFFFFFFFFFFFFFFFFFFFFFFFFFFFFFF DUP3 PUSH2 0x625 JUMP JUMPDEST PUSH2 0x66A DUP7 DUP4 PUSH2 0x625 JUMP JUMPDEST SWAP6 POP DUP1 NOT DUP5 AND SWAP4 POP DUP1 DUP7 AND DUP5 OR SWAP3 POP POP POP SWAP4 SWAP3 POP POP POP JUMP JUMPDEST PUSH0 DUP2 SWAP1 POP SWAP2 SWAP1 POP JUMP JUMPDEST PUSH0 PUSH2 0x6A5 PUSH2 0x6A0 PUSH2 0x69B DUP5 PUSH2 0x37B JUMP JUMPDEST PUSH2 0x682 JUMP JUMPDEST PUSH2 0x37B JUMP JUMPDEST SWAP1 POP SWAP2 SWAP1 POP JUMP JUMPDEST PUSH0 DUP2 SWAP1 POP SWAP2 SWAP1 POP JUMP JUMPDEST PUSH2 0x6BE DUP4 PUSH2 0x68B JUMP JUMPDEST PUSH2 0x6D2 PUSH2 0x6CA DUP3 PUSH2 0x6AC JUMP JUMPDEST DUP5 DUP5 SLOAD PUSH2 0x631 JUMP JUMPDEST DUP3 SSTORE POP POP POP POP JUMP JUMPDEST PUSH0 SWAP1 JUMP JUMPDEST PUSH2 0x6E6 PUSH2 0x6DA JUMP JUMPDEST PUSH2 0x6F1 DUP2 DUP5 DUP5 PUSH2 0x6B5 JUMP JUMPDEST POP POP POP JUMP JUMPDEST JUMPDEST DUP2 DUP2 LT ISZERO PUSH2 0x714 JUMPI PUSH2 0x709 PUSH0 DUP3 PUSH2 0x6DE JUMP JUMPDEST PUSH1 0x1 DUP2 ADD SWAP1 POP PUSH2 0x6F7 JUMP JUMPDEST POP POP JUMP JUMPDEST PUSH1 0x1F DUP3 GT ISZERO PUSH2 0x759 JUMPI PUSH2 0x72A DUP2 PUSH2 0x604 JUMP JUMPDEST PUSH2 0x733 DUP5 PUSH2 0x616 JUMP JUMPDEST DUP2 ADD PUSH1 0x20 DUP6 LT ISZERO PUSH2 0x742 JUMPI DUP2 SWAP1 POP JUMPDEST PUSH2 0x756 PUSH2 0x74E DUP6 PUSH2 0x616 JUMP JUMPDEST DUP4 ADD DUP3 PUSH2 0x6F6 JUMP JUMPDEST POP POP JUMPDEST POP POP POP JUMP JUMPDEST PUSH0 DUP3 DUP3 SHR SWAP1 POP SWAP3 SWAP2 POP POP JUMP JUMPDEST PUSH0 PUSH2 0x779 PUSH0 NOT DUP5 PUSH1 0x8 MUL PUSH2 0x75E JUMP JUMPDEST NOT DUP1 DUP4 AND SWAP2 POP POP SWAP3 SWAP2 POP POP JUMP JUMPDEST PUSH0 PUSH2 0x791 DUP4 DUP4 PUSH2 0x76A JUMP JUMPDEST SWAP2 POP DUP3 PUSH1 0x2 MUL DUP3 OR SWAP1 POP SWAP3 SWAP2 POP POP JUMP JUMPDEST PUSH2 0x7AA DUP3 PUSH2 0x2DA JUMP JUMPDEST PUSH8 0xFFFFFFFFFFFFFFFF DUP2 GT ISZERO PUSH2 0x7C3 JUMPI PUSH2 0x7C2 PUSH2 0x409 JUMP JUMPDEST JUMPDEST PUSH2 0x7CD DUP3 SLOAD PUSH2 0x5D4 JUMP JUMPDEST PUSH2 0x7D8 DUP3 DUP3 DUP6 PUSH2 0x718 JUMP JUMPDEST PUSH0 PUSH1 0x20 SWAP1 POP PUSH1 0x1F DUP4 GT PUSH1 0x1 DUP2 EQ PUSH2 0x809 JUMPI PUSH0 DUP5 ISZERO PUSH2 0x7F7 JUMPI DUP3 DUP8 ADD MLOAD SWAP1 POP JUMPDEST PUSH2 0x801 DUP6 DUP3 PUSH2 0x786 JUMP JUMPDEST DUP7 SSTORE POP PUSH2 0x868 JUMP JUMPDEST PUSH1 0x1F NOT DUP5 AND PUSH2 0x817 DUP7 PUSH2 0x604 JUMP JUMPDEST PUSH0 JUMPDEST DUP3 DUP2 LT ISZERO PUSH2 0x83E JUMPI DUP5 DUP10 ADD MLOAD DUP3 SSTORE PUSH1 0x1 DUP3 ADD SWAP2 POP PUSH1 0x20 DUP6 ADD SWAP5 POP PUSH1 0x20 DUP2 ADD SWAP1 POP PUSH2 0x819 JUMP JUMPDEST DUP7 DUP4 LT ISZERO PUSH2 0x85B JUMPI DUP5 DUP10 ADD MLOAD PUSH2 0x857 PUSH1 0x1F DUP10 AND DUP3 PUSH2 0x76A JUMP JUMPDEST DUP4 SSTORE POP JUMPDEST PUSH1 0x1 PUSH1 0x2 DUP9 MUL ADD DUP9 SSTORE POP POP POP JUMPDEST POP POP POP POP POP POP JUMP INVALID LOG2 PUSH5 0x6970667358 0x22 SLT KECCAK256 SHR DUP10 SWAP3 MLOAD SWAP14 0xF6 0xD4 PUSH25 0x730F33997CDE26F5C23A704FB8C88C669921074F14FB264064 PUSH20 0x6F6C634300081900330000000000000000000000 "
		},
		"gasEstimates": {
			"creation": {
				"codeDepositCost": "442800",
				"executionCost": "478",
				"totalCost": "443278"
			},
			"external": {
				"bidAmount()": "2447",
				"determinedEligibility()": "28712",
				"eligible()": "2532",
				"getBidAmount()": "2520",
				"getMinBid()": "2521",
				"minBid()": "2470",
				"name()": "infinite",
				"setBidAmount(uint256)": "22515",
				"setMinBid(uint256)": "22538",
				"setName(string)": "infinite"
			}
		},
		"methodIdentifiers": {
			"bidAmount()": "aec2393b",
			"determinedEligibility()": "614d44d8",
			"eligible()": "d832d92f",
			"getBidAmount()": "eb01d83b",
			"getMinBid()": "8cb39385",
			"minBid()": "3e109a19",
			"name()": "06fdde03",
			"setBidAmount(uint256)": "9554d3f5",
			"setMinBid(uint256)": "12874688",
			"setName(string)": "c47f0027"
		}
	},
	"abi": [
		{
			"inputs": [],
			"name": "bidAmount",
			"outputs": [
				{
					"internalType": "uint256",
					"name": "",
					"type": "uint256"
				}
			],
			"stateMutability": "view",
			"type": "function"
		},
		{
			"inputs": [],
			"name": "determinedEligibility",
			"outputs": [],
			"stateMutability": "nonpayable",
			"type": "function"
		},
		{
			"inputs": [],
			"name": "eligible",
			"outputs": [
				{
					"internalType": "bool",
					"name": "",
					"type": "bool"
				}
			],
			"stateMutability": "view",
			"type": "function"
		},
		{
			"inputs": [],
			"name": "getBidAmount",
			"outputs": [
				{
					"internalType": "uint256",
					"name": "",
					"type": "uint256"
				}
			],
			"stateMutability": "view",
			"type": "function"
		},
		{
			"inputs": [],
			"name": "getMinBid",
			"outputs": [
				{
					"internalType": "uint256",
					"name": "",
					"type": "uint256"
				}
			],
			"stateMutability": "view",
			"type": "function"
		},
		{
			"inputs": [],
			"name": "minBid",
			"outputs": [
				{
					"internalType": "uint256",
					"name": "",
					"type": "uint256"
				}
			],
			"stateMutability": "view",
			"type": "function"
		},
		{
			"inputs": [],
			"name": "name",
			"outputs": [
				{
					"internalType": "string",
					"name": "",
					"type": "string"
				}
			],
			"stateMutability": "view",
			"type": "function"
		},
		{
			"inputs": [
				{
					"internalType": "uint256",
					"name": "bidAmountSet",
					"type": "uint256"
				}
			],
			"name": "setBidAmount",
			"outputs": [],
			"stateMutability": "nonpayable",
			"type": "function"
		},
		{
			"inputs": [
				{
					"internalType": "uint256",
					"name": "minBidSet",
					"type": "uint256"
				}
			],
			"name": "setMinBid",
			"outputs": [],
			"stateMutability": "nonpayable",
			"type": "function"
		},
		{
			"inputs": [
				{
					"internalType": "string",
					"name": "nameSet",
					"type": "string"
				}
			],
			"name": "setName",
			"outputs": [],
			"stateMutability": "nonpayable",
			"type": "function"
		}
	]
}