{
	"lab5Exercise/child1.sol": {
		"Child1": {
			"abi": [
				{
					"inputs": [
						{
							"internalType": "address",
							"name": "_parent1ContractAddress",
							"type": "address"
						}
					],
					"stateMutability": "nonpayable",
					"type": "constructor"
				},
				{
					"inputs": [],
					"name": "getValueFromChild",
					"outputs": [
						{
							"internalType": "uint256",
							"name": "",
							"type": "uint256"
						}
					],
					"stateMutability": "view",
					"type": "function"
				},
				{
					"inputs": [],
					"name": "parent1Contract",
					"outputs": [
						{
							"internalType": "contract ParentInterface",
							"name": "",
							"type": "address"
						}
					],
					"stateMutability": "view",
					"type": "function"
				},
				{
					"inputs": [
						{
							"internalType": "uint256",
							"name": "_a",
							"type": "uint256"
						},
						{
							"internalType": "uint256",
							"name": "_b",
							"type": "uint256"
						}
					],
					"name": "setValueFromChild",
					"outputs": [],
					"stateMutability": "nonpayable",
					"type": "function"
				}
			],
			"devdoc": {
				"kind": "dev",
				"methods": {},
				"version": 1
			},
			"evm": {
				"assembly": "    /* \"lab5Exercise/child1.sol\":87:515  contract Child1{... */\n  mstore(0x40, 0x80)\n    /* \"lab5Exercise/child1.sol\":156:277  constructor(address _parent1ContractAddress){... */\n  callvalue\n  dup1\n  iszero\n  tag_1\n  jumpi\n  0x00\n  dup1\n  revert\ntag_1:\n  pop\n  mload(0x40)\n  sub(codesize, bytecodeSize)\n  dup1\n  bytecodeSize\n  dup4\n  codecopy\n  dup2\n  dup2\n  add\n  0x40\n  mstore\n  dup2\n  add\n  swap1\n  tag_2\n  swap2\n  swap1\n  tag_3\n  jump\t// in\ntag_2:\n    /* \"lab5Exercise/child1.sol\":245:268  _parent1ContractAddress */\n  dup1\n    /* \"lab5Exercise/child1.sol\":211:226  parent1Contract */\n  0x00\n  dup1\n    /* \"lab5Exercise/child1.sol\":211:269  parent1Contract = ParentInterface(_parent1ContractAddress) */\n  0x0100\n  exp\n  dup2\n  sload\n  dup2\n  0xffffffffffffffffffffffffffffffffffffffff\n  mul\n  not\n  and\n  swap1\n  dup4\n  0xffffffffffffffffffffffffffffffffffffffff\n  and\n  mul\n  or\n  swap1\n  sstore\n  pop\n    /* \"lab5Exercise/child1.sol\":156:277  constructor(address _parent1ContractAddress){... */\n  pop\n    /* \"lab5Exercise/child1.sol\":87:515  contract Child1{... */\n  jump(tag_6)\n    /* \"#utility.yul\":88:205   */\ntag_8:\n    /* \"#utility.yul\":197:198   */\n  0x00\n    /* \"#utility.yul\":194:195   */\n  dup1\n    /* \"#utility.yul\":187:199   */\n  revert\n    /* \"#utility.yul\":334:460   */\ntag_10:\n    /* \"#utility.yul\":371:378   */\n  0x00\n    /* \"#utility.yul\":411:453   */\n  0xffffffffffffffffffffffffffffffffffffffff\n    /* \"#utility.yul\":404:409   */\n  dup3\n    /* \"#utility.yul\":400:454   */\n  and\n    /* \"#utility.yul\":389:454   */\n  swap1\n  pop\n    /* \"#utility.yul\":334:460   */\n  swap2\n  swap1\n  pop\n  jump\t// out\n    /* \"#utility.yul\":466:562   */\ntag_11:\n    /* \"#utility.yul\":503:510   */\n  0x00\n    /* \"#utility.yul\":532:556   */\n  tag_20\n    /* \"#utility.yul\":550:555   */\n  dup3\n    /* \"#utility.yul\":532:556   */\n  tag_10\n  jump\t// in\ntag_20:\n    /* \"#utility.yul\":521:556   */\n  swap1\n  pop\n    /* \"#utility.yul\":466:562   */\n  swap2\n  swap1\n  pop\n  jump\t// out\n    /* \"#utility.yul\":568:690   */\ntag_12:\n    /* \"#utility.yul\":641:665   */\n  tag_22\n    /* \"#utility.yul\":659:664   */\n  dup2\n    /* \"#utility.yul\":641:665   */\n  tag_11\n  jump\t// in\ntag_22:\n    /* \"#utility.yul\":634:639   */\n  dup2\n    /* \"#utility.yul\":631:666   */\n  eq\n    /* \"#utility.yul\":621:684   */\n  tag_23\n  jumpi\n    /* \"#utility.yul\":680:681   */\n  0x00\n    /* \"#utility.yul\":677:678   */\n  dup1\n    /* \"#utility.yul\":670:682   */\n  revert\n    /* \"#utility.yul\":621:684   */\ntag_23:\n    /* \"#utility.yul\":568:690   */\n  pop\n  jump\t// out\n    /* \"#utility.yul\":696:839   */\ntag_13:\n    /* \"#utility.yul\":753:758   */\n  0x00\n    /* \"#utility.yul\":784:790   */\n  dup2\n    /* \"#utility.yul\":778:791   */\n  mload\n    /* \"#utility.yul\":769:791   */\n  swap1\n  pop\n    /* \"#utility.yul\":800:833   */\n  tag_25\n    /* \"#utility.yul\":827:832   */\n  dup2\n    /* \"#utility.yul\":800:833   */\n  tag_12\n  jump\t// in\ntag_25:\n    /* \"#utility.yul\":696:839   */\n  swap3\n  swap2\n  pop\n  pop\n  jump\t// out\n    /* \"#utility.yul\":845:1196   */\ntag_3:\n    /* \"#utility.yul\":915:921   */\n  0x00\n    /* \"#utility.yul\":964:966   */\n  0x20\n    /* \"#utility.yul\":952:961   */\n  dup3\n    /* \"#utility.yul\":943:950   */\n  dup5\n    /* \"#utility.yul\":939:962   */\n  sub\n    /* \"#utility.yul\":935:967   */\n  slt\n    /* \"#utility.yul\":932:1051   */\n  iszero\n  tag_27\n  jumpi\n    /* \"#utility.yul\":970:1049   */\n  tag_28\n  tag_8\n  jump\t// in\ntag_28:\n    /* \"#utility.yul\":932:1051   */\ntag_27:\n    /* \"#utility.yul\":1090:1091   */\n  0x00\n    /* \"#utility.yul\":1115:1179   */\n  tag_29\n    /* \"#utility.yul\":1171:1178   */\n  dup5\n    /* \"#utility.yul\":1162:1168   */\n  dup3\n    /* \"#utility.yul\":1151:1160   */\n  dup6\n    /* \"#utility.yul\":1147:1169   */\n  add\n    /* \"#utility.yul\":1115:1179   */\n  tag_13\n  jump\t// in\ntag_29:\n    /* \"#utility.yul\":1105:1179   */\n  swap2\n  pop\n    /* \"#utility.yul\":1061:1189   */\n  pop\n    /* \"#utility.yul\":845:1196   */\n  swap3\n  swap2\n  pop\n  pop\n  jump\t// out\n    /* \"lab5Exercise/child1.sol\":87:515  contract Child1{... */\ntag_6:\n  dataSize(sub_0)\n  dup1\n  dataOffset(sub_0)\n  0x00\n  codecopy\n  0x00\n  return\nstop\n\nsub_0: assembly {\n        /* \"lab5Exercise/child1.sol\":87:515  contract Child1{... */\n      mstore(0x40, 0x80)\n      callvalue\n      dup1\n      iszero\n      tag_1\n      jumpi\n      0x00\n      dup1\n      revert\n    tag_1:\n      pop\n      jumpi(tag_2, lt(calldatasize, 0x04))\n      shr(0xe0, calldataload(0x00))\n      dup1\n      0x9fbdf5f8\n      eq\n      tag_3\n      jumpi\n      dup1\n      0xb709206b\n      eq\n      tag_4\n      jumpi\n      dup1\n      0xc79681f7\n      eq\n      tag_5\n      jumpi\n    tag_2:\n      0x00\n      dup1\n      revert\n        /* \"lab5Exercise/child1.sol\":400:512  function getValueFromChild() external view returns (uint256){... */\n    tag_3:\n      tag_6\n      tag_7\n      jump\t// in\n    tag_6:\n      mload(0x40)\n      tag_8\n      swap2\n      swap1\n      tag_9\n      jump\t// in\n    tag_8:\n      mload(0x40)\n      dup1\n      swap2\n      sub\n      swap1\n      return\n        /* \"lab5Exercise/child1.sol\":285:392  function setValueFromChild(uint256 _a, uint _b) external{... */\n    tag_4:\n      tag_10\n      0x04\n      dup1\n      calldatasize\n      sub\n      dup2\n      add\n      swap1\n      tag_11\n      swap2\n      swap1\n      tag_12\n      jump\t// in\n    tag_11:\n      tag_13\n      jump\t// in\n    tag_10:\n      stop\n        /* \"lab5Exercise/child1.sol\":109:147  ParentInterface public parent1Contract */\n    tag_5:\n      tag_14\n      tag_15\n      jump\t// in\n    tag_14:\n      mload(0x40)\n      tag_16\n      swap2\n      swap1\n      tag_17\n      jump\t// in\n    tag_16:\n      mload(0x40)\n      dup1\n      swap2\n      sub\n      swap1\n      return\n        /* \"lab5Exercise/child1.sol\":400:512  function getValueFromChild() external view returns (uint256){... */\n    tag_7:\n        /* \"lab5Exercise/child1.sol\":452:459  uint256 */\n      0x00\n        /* \"lab5Exercise/child1.sol\":478:493  parent1Contract */\n      dup1\n      0x00\n      swap1\n      sload\n      swap1\n      0x0100\n      exp\n      swap1\n      div\n      0xffffffffffffffffffffffffffffffffffffffff\n      and\n        /* \"lab5Exercise/child1.sol\":478:502  parent1Contract.getValue */\n      0xffffffffffffffffffffffffffffffffffffffff\n      and\n      0x20965255\n        /* \"lab5Exercise/child1.sol\":478:504  parent1Contract.getValue() */\n      mload(0x40)\n      dup2\n      0xffffffff\n      and\n      0xe0\n      shl\n      dup2\n      mstore\n      0x04\n      add\n      0x20\n      mload(0x40)\n      dup1\n      dup4\n      sub\n      dup2\n      dup7\n      gas\n      staticcall\n      iszero\n      dup1\n      iszero\n      tag_20\n      jumpi\n      returndatasize\n      0x00\n      dup1\n      returndatacopy\n      revert(0x00, returndatasize)\n    tag_20:\n      pop\n      pop\n      pop\n      pop\n      mload(0x40)\n      returndatasize\n      not(0x1f)\n      0x1f\n      dup3\n      add\n      and\n      dup3\n      add\n      dup1\n      0x40\n      mstore\n      pop\n      dup2\n      add\n      swap1\n      tag_21\n      swap2\n      swap1\n      tag_22\n      jump\t// in\n    tag_21:\n        /* \"lab5Exercise/child1.sol\":471:504  return parent1Contract.getValue() */\n      swap1\n      pop\n        /* \"lab5Exercise/child1.sol\":400:512  function getValueFromChild() external view returns (uint256){... */\n      swap1\n      jump\t// out\n        /* \"lab5Exercise/child1.sol\":285:392  function setValueFromChild(uint256 _a, uint _b) external{... */\n    tag_13:\n        /* \"lab5Exercise/child1.sol\":352:367  parent1Contract */\n      0x00\n      dup1\n      sload\n      swap1\n      0x0100\n      exp\n      swap1\n      div\n      0xffffffffffffffffffffffffffffffffffffffff\n      and\n        /* \"lab5Exercise/child1.sol\":352:376  parent1Contract.setValue */\n      0xffffffffffffffffffffffffffffffffffffffff\n      and\n      0x7b8d56e3\n        /* \"lab5Exercise/child1.sol\":377:379  _a */\n      dup4\n        /* \"lab5Exercise/child1.sol\":381:383  _b */\n      dup4\n        /* \"lab5Exercise/child1.sol\":352:384  parent1Contract.setValue(_a, _b) */\n      mload(0x40)\n      dup4\n      0xffffffff\n      and\n      0xe0\n      shl\n      dup2\n      mstore\n      0x04\n      add\n      tag_24\n      swap3\n      swap2\n      swap1\n      tag_25\n      jump\t// in\n    tag_24:\n      0x00\n      mload(0x40)\n      dup1\n      dup4\n      sub\n      dup2\n      0x00\n      dup8\n      dup1\n      extcodesize\n      iszero\n      dup1\n      iszero\n      tag_26\n      jumpi\n      0x00\n      dup1\n      revert\n    tag_26:\n      pop\n      gas\n      call\n      iszero\n      dup1\n      iszero\n      tag_28\n      jumpi\n      returndatasize\n      0x00\n      dup1\n      returndatacopy\n      revert(0x00, returndatasize)\n    tag_28:\n      pop\n      pop\n      pop\n      pop\n        /* \"lab5Exercise/child1.sol\":285:392  function setValueFromChild(uint256 _a, uint _b) external{... */\n      pop\n      pop\n      jump\t// out\n        /* \"lab5Exercise/child1.sol\":109:147  ParentInterface public parent1Contract */\n    tag_15:\n      0x00\n      dup1\n      sload\n      swap1\n      0x0100\n      exp\n      swap1\n      div\n      0xffffffffffffffffffffffffffffffffffffffff\n      and\n      dup2\n      jump\t// out\n        /* \"#utility.yul\":7:84   */\n    tag_29:\n        /* \"#utility.yul\":44:51   */\n      0x00\n        /* \"#utility.yul\":73:78   */\n      dup2\n        /* \"#utility.yul\":62:78   */\n      swap1\n      pop\n        /* \"#utility.yul\":7:84   */\n      swap2\n      swap1\n      pop\n      jump\t// out\n        /* \"#utility.yul\":90:208   */\n    tag_30:\n        /* \"#utility.yul\":177:201   */\n      tag_46\n        /* \"#utility.yul\":195:200   */\n      dup2\n        /* \"#utility.yul\":177:201   */\n      tag_29\n      jump\t// in\n    tag_46:\n        /* \"#utility.yul\":172:175   */\n      dup3\n        /* \"#utility.yul\":165:202   */\n      mstore\n        /* \"#utility.yul\":90:208   */\n      pop\n      pop\n      jump\t// out\n        /* \"#utility.yul\":214:436   */\n    tag_9:\n        /* \"#utility.yul\":307:311   */\n      0x00\n        /* \"#utility.yul\":345:347   */\n      0x20\n        /* \"#utility.yul\":334:343   */\n      dup3\n        /* \"#utility.yul\":330:348   */\n      add\n        /* \"#utility.yul\":322:348   */\n      swap1\n      pop\n        /* \"#utility.yul\":358:429   */\n      tag_48\n        /* \"#utility.yul\":426:427   */\n      0x00\n        /* \"#utility.yul\":415:424   */\n      dup4\n        /* \"#utility.yul\":411:428   */\n      add\n        /* \"#utility.yul\":402:408   */\n      dup5\n        /* \"#utility.yul\":358:429   */\n      tag_30\n      jump\t// in\n    tag_48:\n        /* \"#utility.yul\":214:436   */\n      swap3\n      swap2\n      pop\n      pop\n      jump\t// out\n        /* \"#utility.yul\":523:640   */\n    tag_32:\n        /* \"#utility.yul\":632:633   */\n      0x00\n        /* \"#utility.yul\":629:630   */\n      dup1\n        /* \"#utility.yul\":622:634   */\n      revert\n        /* \"#utility.yul\":769:891   */\n    tag_34:\n        /* \"#utility.yul\":842:866   */\n      tag_53\n        /* \"#utility.yul\":860:865   */\n      dup2\n        /* \"#utility.yul\":842:866   */\n      tag_29\n      jump\t// in\n    tag_53:\n        /* \"#utility.yul\":835:840   */\n      dup2\n        /* \"#utility.yul\":832:867   */\n      eq\n        /* \"#utility.yul\":822:885   */\n      tag_54\n      jumpi\n        /* \"#utility.yul\":881:882   */\n      0x00\n        /* \"#utility.yul\":878:879   */\n      dup1\n        /* \"#utility.yul\":871:883   */\n      revert\n        /* \"#utility.yul\":822:885   */\n    tag_54:\n        /* \"#utility.yul\":769:891   */\n      pop\n      jump\t// out\n        /* \"#utility.yul\":897:1036   */\n    tag_35:\n        /* \"#utility.yul\":943:948   */\n      0x00\n        /* \"#utility.yul\":981:987   */\n      dup2\n        /* \"#utility.yul\":968:988   */\n      calldataload\n        /* \"#utility.yul\":959:988   */\n      swap1\n      pop\n        /* \"#utility.yul\":997:1030   */\n      tag_56\n        /* \"#utility.yul\":1024:1029   */\n      dup2\n        /* \"#utility.yul\":997:1030   */\n      tag_34\n      jump\t// in\n    tag_56:\n        /* \"#utility.yul\":897:1036   */\n      swap3\n      swap2\n      pop\n      pop\n      jump\t// out\n        /* \"#utility.yul\":1042:1516   */\n    tag_12:\n        /* \"#utility.yul\":1110:1116   */\n      0x00\n        /* \"#utility.yul\":1118:1124   */\n      dup1\n        /* \"#utility.yul\":1167:1169   */\n      0x40\n        /* \"#utility.yul\":1155:1164   */\n      dup4\n        /* \"#utility.yul\":1146:1153   */\n      dup6\n        /* \"#utility.yul\":1142:1165   */\n      sub\n        /* \"#utility.yul\":1138:1170   */\n      slt\n        /* \"#utility.yul\":1135:1254   */\n      iszero\n      tag_58\n      jumpi\n        /* \"#utility.yul\":1173:1252   */\n      tag_59\n      tag_32\n      jump\t// in\n    tag_59:\n        /* \"#utility.yul\":1135:1254   */\n    tag_58:\n        /* \"#utility.yul\":1293:1294   */\n      0x00\n        /* \"#utility.yul\":1318:1371   */\n      tag_60\n        /* \"#utility.yul\":1363:1370   */\n      dup6\n        /* \"#utility.yul\":1354:1360   */\n      dup3\n        /* \"#utility.yul\":1343:1352   */\n      dup7\n        /* \"#utility.yul\":1339:1361   */\n      add\n        /* \"#utility.yul\":1318:1371   */\n      tag_35\n      jump\t// in\n    tag_60:\n        /* \"#utility.yul\":1308:1371   */\n      swap3\n      pop\n        /* \"#utility.yul\":1264:1381   */\n      pop\n        /* \"#utility.yul\":1420:1422   */\n      0x20\n        /* \"#utility.yul\":1446:1499   */\n      tag_61\n        /* \"#utility.yul\":1491:1498   */\n      dup6\n        /* \"#utility.yul\":1482:1488   */\n      dup3\n        /* \"#utility.yul\":1471:1480   */\n      dup7\n        /* \"#utility.yul\":1467:1489   */\n      add\n        /* \"#utility.yul\":1446:1499   */\n      tag_35\n      jump\t// in\n    tag_61:\n        /* \"#utility.yul\":1436:1499   */\n      swap2\n      pop\n        /* \"#utility.yul\":1391:1509   */\n      pop\n        /* \"#utility.yul\":1042:1516   */\n      swap3\n      pop\n      swap3\n      swap1\n      pop\n      jump\t// out\n        /* \"#utility.yul\":1522:1648   */\n    tag_36:\n        /* \"#utility.yul\":1559:1566   */\n      0x00\n        /* \"#utility.yul\":1599:1641   */\n      0xffffffffffffffffffffffffffffffffffffffff\n        /* \"#utility.yul\":1592:1597   */\n      dup3\n        /* \"#utility.yul\":1588:1642   */\n      and\n        /* \"#utility.yul\":1577:1642   */\n      swap1\n      pop\n        /* \"#utility.yul\":1522:1648   */\n      swap2\n      swap1\n      pop\n      jump\t// out\n        /* \"#utility.yul\":1654:1714   */\n    tag_37:\n        /* \"#utility.yul\":1682:1685   */\n      0x00\n        /* \"#utility.yul\":1703:1708   */\n      dup2\n        /* \"#utility.yul\":1696:1708   */\n      swap1\n      pop\n        /* \"#utility.yul\":1654:1714   */\n      swap2\n      swap1\n      pop\n      jump\t// out\n        /* \"#utility.yul\":1720:1862   */\n    tag_38:\n        /* \"#utility.yul\":1770:1779   */\n      0x00\n        /* \"#utility.yul\":1803:1856   */\n      tag_65\n        /* \"#utility.yul\":1821:1855   */\n      tag_66\n        /* \"#utility.yul\":1830:1854   */\n      tag_67\n        /* \"#utility.yul\":1848:1853   */\n      dup5\n        /* \"#utility.yul\":1830:1854   */\n      tag_36\n      jump\t// in\n    tag_67:\n        /* \"#utility.yul\":1821:1855   */\n      tag_37\n      jump\t// in\n    tag_66:\n        /* \"#utility.yul\":1803:1856   */\n      tag_36\n      jump\t// in\n    tag_65:\n        /* \"#utility.yul\":1790:1856   */\n      swap1\n      pop\n        /* \"#utility.yul\":1720:1862   */\n      swap2\n      swap1\n      pop\n      jump\t// out\n        /* \"#utility.yul\":1868:1994   */\n    tag_39:\n        /* \"#utility.yul\":1918:1927   */\n      0x00\n        /* \"#utility.yul\":1951:1988   */\n      tag_69\n        /* \"#utility.yul\":1982:1987   */\n      dup3\n        /* \"#utility.yul\":1951:1988   */\n      tag_38\n      jump\t// in\n    tag_69:\n        /* \"#utility.yul\":1938:1988   */\n      swap1\n      pop\n        /* \"#utility.yul\":1868:1994   */\n      swap2\n      swap1\n      pop\n      jump\t// out\n        /* \"#utility.yul\":2000:2148   */\n    tag_40:\n        /* \"#utility.yul\":2072:2081   */\n      0x00\n        /* \"#utility.yul\":2105:2142   */\n      tag_71\n        /* \"#utility.yul\":2136:2141   */\n      dup3\n        /* \"#utility.yul\":2105:2142   */\n      tag_39\n      jump\t// in\n    tag_71:\n        /* \"#utility.yul\":2092:2142   */\n      swap1\n      pop\n        /* \"#utility.yul\":2000:2148   */\n      swap2\n      swap1\n      pop\n      jump\t// out\n        /* \"#utility.yul\":2154:2329   */\n    tag_41:\n        /* \"#utility.yul\":2263:2322   */\n      tag_73\n        /* \"#utility.yul\":2316:2321   */\n      dup2\n        /* \"#utility.yul\":2263:2322   */\n      tag_40\n      jump\t// in\n    tag_73:\n        /* \"#utility.yul\":2258:2261   */\n      dup3\n        /* \"#utility.yul\":2251:2323   */\n      mstore\n        /* \"#utility.yul\":2154:2329   */\n      pop\n      pop\n      jump\t// out\n        /* \"#utility.yul\":2335:2601   */\n    tag_17:\n        /* \"#utility.yul\":2450:2454   */\n      0x00\n        /* \"#utility.yul\":2488:2490   */\n      0x20\n        /* \"#utility.yul\":2477:2486   */\n      dup3\n        /* \"#utility.yul\":2473:2491   */\n      add\n        /* \"#utility.yul\":2465:2491   */\n      swap1\n      pop\n        /* \"#utility.yul\":2501:2594   */\n      tag_75\n        /* \"#utility.yul\":2591:2592   */\n      0x00\n        /* \"#utility.yul\":2580:2589   */\n      dup4\n        /* \"#utility.yul\":2576:2593   */\n      add\n        /* \"#utility.yul\":2567:2573   */\n      dup5\n        /* \"#utility.yul\":2501:2594   */\n      tag_41\n      jump\t// in\n    tag_75:\n        /* \"#utility.yul\":2335:2601   */\n      swap3\n      swap2\n      pop\n      pop\n      jump\t// out\n        /* \"#utility.yul\":2607:2750   */\n    tag_42:\n        /* \"#utility.yul\":2664:2669   */\n      0x00\n        /* \"#utility.yul\":2695:2701   */\n      dup2\n        /* \"#utility.yul\":2689:2702   */\n      mload\n        /* \"#utility.yul\":2680:2702   */\n      swap1\n      pop\n        /* \"#utility.yul\":2711:2744   */\n      tag_77\n        /* \"#utility.yul\":2738:2743   */\n      dup2\n        /* \"#utility.yul\":2711:2744   */\n      tag_34\n      jump\t// in\n    tag_77:\n        /* \"#utility.yul\":2607:2750   */\n      swap3\n      swap2\n      pop\n      pop\n      jump\t// out\n        /* \"#utility.yul\":2756:3107   */\n    tag_22:\n        /* \"#utility.yul\":2826:2832   */\n      0x00\n        /* \"#utility.yul\":2875:2877   */\n      0x20\n        /* \"#utility.yul\":2863:2872   */\n      dup3\n        /* \"#utility.yul\":2854:2861   */\n      dup5\n        /* \"#utility.yul\":2850:2873   */\n      sub\n        /* \"#utility.yul\":2846:2878   */\n      slt\n        /* \"#utility.yul\":2843:2962   */\n      iszero\n      tag_79\n      jumpi\n        /* \"#utility.yul\":2881:2960   */\n      tag_80\n      tag_32\n      jump\t// in\n    tag_80:\n        /* \"#utility.yul\":2843:2962   */\n    tag_79:\n        /* \"#utility.yul\":3001:3002   */\n      0x00\n        /* \"#utility.yul\":3026:3090   */\n      tag_81\n        /* \"#utility.yul\":3082:3089   */\n      dup5\n        /* \"#utility.yul\":3073:3079   */\n      dup3\n        /* \"#utility.yul\":3062:3071   */\n      dup6\n        /* \"#utility.yul\":3058:3080   */\n      add\n        /* \"#utility.yul\":3026:3090   */\n      tag_42\n      jump\t// in\n    tag_81:\n        /* \"#utility.yul\":3016:3090   */\n      swap2\n      pop\n        /* \"#utility.yul\":2972:3100   */\n      pop\n        /* \"#utility.yul\":2756:3107   */\n      swap3\n      swap2\n      pop\n      pop\n      jump\t// out\n        /* \"#utility.yul\":3113:3445   */\n    tag_25:\n        /* \"#utility.yul\":3234:3238   */\n      0x00\n        /* \"#utility.yul\":3272:3274   */\n      0x40\n        /* \"#utility.yul\":3261:3270   */\n      dup3\n        /* \"#utility.yul\":3257:3275   */\n      add\n        /* \"#utility.yul\":3249:3275   */\n      swap1\n      pop\n        /* \"#utility.yul\":3285:3356   */\n      tag_83\n        /* \"#utility.yul\":3353:3354   */\n      0x00\n        /* \"#utility.yul\":3342:3351   */\n      dup4\n        /* \"#utility.yul\":3338:3355   */\n      add\n        /* \"#utility.yul\":3329:3335   */\n      dup6\n        /* \"#utility.yul\":3285:3356   */\n      tag_30\n      jump\t// in\n    tag_83:\n        /* \"#utility.yul\":3366:3438   */\n      tag_84\n        /* \"#utility.yul\":3434:3436   */\n      0x20\n        /* \"#utility.yul\":3423:3432   */\n      dup4\n        /* \"#utility.yul\":3419:3437   */\n      add\n        /* \"#utility.yul\":3410:3416   */\n      dup5\n        /* \"#utility.yul\":3366:3438   */\n      tag_30\n      jump\t// in\n    tag_84:\n        /* \"#utility.yul\":3113:3445   */\n      swap4\n      swap3\n      pop\n      pop\n      pop\n      jump\t// out\n\n    auxdata: 0xa2646970667358221220fbd93e9f65c6c87c5dcf64608cf11f05b3324d820ab50fb9e26ade61140877b164736f6c63430008180033\n}\n",
				"bytecode": {
					"linkReferences": {},
					"object": "608060405234801561000f575f80fd5b506040516104b43803806104b4833981810160405281019061003191906100d4565b805f806101000a81548173ffffffffffffffffffffffffffffffffffffffff021916908373ffffffffffffffffffffffffffffffffffffffff160217905550506100ff565b5f80fd5b5f73ffffffffffffffffffffffffffffffffffffffff82169050919050565b5f6100a38261007a565b9050919050565b6100b381610099565b81146100bd575f80fd5b50565b5f815190506100ce816100aa565b92915050565b5f602082840312156100e9576100e8610076565b5b5f6100f6848285016100c0565b91505092915050565b6103a88061010c5f395ff3fe608060405234801561000f575f80fd5b506004361061003f575f3560e01c80639fbdf5f814610043578063b709206b14610061578063c79681f71461007d575b5f80fd5b61004b61009b565b60405161005891906101f4565b60405180910390f35b61007b6004803603810190610076919061023b565b61012e565b005b6100856101b9565b60405161009291906102f3565b60405180910390f35b5f805f9054906101000a900473ffffffffffffffffffffffffffffffffffffffff1673ffffffffffffffffffffffffffffffffffffffff1663209652556040518163ffffffff1660e01b8152600401602060405180830381865afa158015610105573d5f803e3d5ffd5b505050506040513d601f19601f820116820180604052508101906101299190610320565b905090565b5f8054906101000a900473ffffffffffffffffffffffffffffffffffffffff1673ffffffffffffffffffffffffffffffffffffffff16637b8d56e383836040518363ffffffff1660e01b815260040161018892919061034b565b5f604051808303815f87803b15801561019f575f80fd5b505af11580156101b1573d5f803e3d5ffd5b505050505050565b5f8054906101000a900473ffffffffffffffffffffffffffffffffffffffff1681565b5f819050919050565b6101ee816101dc565b82525050565b5f6020820190506102075f8301846101e5565b92915050565b5f80fd5b61021a816101dc565b8114610224575f80fd5b50565b5f8135905061023581610211565b92915050565b5f80604083850312156102515761025061020d565b5b5f61025e85828601610227565b925050602061026f85828601610227565b9150509250929050565b5f73ffffffffffffffffffffffffffffffffffffffff82169050919050565b5f819050919050565b5f6102bb6102b66102b184610279565b610298565b610279565b9050919050565b5f6102cc826102a1565b9050919050565b5f6102dd826102c2565b9050919050565b6102ed816102d3565b82525050565b5f6020820190506103065f8301846102e4565b92915050565b5f8151905061031a81610211565b92915050565b5f602082840312156103355761033461020d565b5b5f6103428482850161030c565b91505092915050565b5f60408201905061035e5f8301856101e5565b61036b60208301846101e5565b939250505056fea2646970667358221220fbd93e9f65c6c87c5dcf64608cf11f05b3324d820ab50fb9e26ade61140877b164736f6c63430008180033",
					"opcodes": "PUSH1 0x80 PUSH1 0x40 MSTORE CALLVALUE DUP1 ISZERO PUSH2 0xF JUMPI PUSH0 DUP1 REVERT JUMPDEST POP PUSH1 0x40 MLOAD PUSH2 0x4B4 CODESIZE SUB DUP1 PUSH2 0x4B4 DUP4 CODECOPY DUP2 DUP2 ADD PUSH1 0x40 MSTORE DUP2 ADD SWAP1 PUSH2 0x31 SWAP2 SWAP1 PUSH2 0xD4 JUMP JUMPDEST DUP1 PUSH0 DUP1 PUSH2 0x100 EXP DUP2 SLOAD DUP2 PUSH20 0xFFFFFFFFFFFFFFFFFFFFFFFFFFFFFFFFFFFFFFFF MUL NOT AND SWAP1 DUP4 PUSH20 0xFFFFFFFFFFFFFFFFFFFFFFFFFFFFFFFFFFFFFFFF AND MUL OR SWAP1 SSTORE POP POP PUSH2 0xFF JUMP JUMPDEST PUSH0 DUP1 REVERT JUMPDEST PUSH0 PUSH20 0xFFFFFFFFFFFFFFFFFFFFFFFFFFFFFFFFFFFFFFFF DUP3 AND SWAP1 POP SWAP2 SWAP1 POP JUMP JUMPDEST PUSH0 PUSH2 0xA3 DUP3 PUSH2 0x7A JUMP JUMPDEST SWAP1 POP SWAP2 SWAP1 POP JUMP JUMPDEST PUSH2 0xB3 DUP2 PUSH2 0x99 JUMP JUMPDEST DUP2 EQ PUSH2 0xBD JUMPI PUSH0 DUP1 REVERT JUMPDEST POP JUMP JUMPDEST PUSH0 DUP2 MLOAD SWAP1 POP PUSH2 0xCE DUP2 PUSH2 0xAA JUMP JUMPDEST SWAP3 SWAP2 POP POP JUMP JUMPDEST PUSH0 PUSH1 0x20 DUP3 DUP5 SUB SLT ISZERO PUSH2 0xE9 JUMPI PUSH2 0xE8 PUSH2 0x76 JUMP JUMPDEST JUMPDEST PUSH0 PUSH2 0xF6 DUP5 DUP3 DUP6 ADD PUSH2 0xC0 JUMP JUMPDEST SWAP2 POP POP SWAP3 SWAP2 POP POP JUMP JUMPDEST PUSH2 0x3A8 DUP1 PUSH2 0x10C PUSH0 CODECOPY PUSH0 RETURN INVALID PUSH1 0x80 PUSH1 0x40 MSTORE CALLVALUE DUP1 ISZERO PUSH2 0xF JUMPI PUSH0 DUP1 REVERT JUMPDEST POP PUSH1 0x4 CALLDATASIZE LT PUSH2 0x3F JUMPI PUSH0 CALLDATALOAD PUSH1 0xE0 SHR DUP1 PUSH4 0x9FBDF5F8 EQ PUSH2 0x43 JUMPI DUP1 PUSH4 0xB709206B EQ PUSH2 0x61 JUMPI DUP1 PUSH4 0xC79681F7 EQ PUSH2 0x7D JUMPI JUMPDEST PUSH0 DUP1 REVERT JUMPDEST PUSH2 0x4B PUSH2 0x9B JUMP JUMPDEST PUSH1 0x40 MLOAD PUSH2 0x58 SWAP2 SWAP1 PUSH2 0x1F4 JUMP JUMPDEST PUSH1 0x40 MLOAD DUP1 SWAP2 SUB SWAP1 RETURN JUMPDEST PUSH2 0x7B PUSH1 0x4 DUP1 CALLDATASIZE SUB DUP2 ADD SWAP1 PUSH2 0x76 SWAP2 SWAP1 PUSH2 0x23B JUMP JUMPDEST PUSH2 0x12E JUMP JUMPDEST STOP JUMPDEST PUSH2 0x85 PUSH2 0x1B9 JUMP JUMPDEST PUSH1 0x40 MLOAD PUSH2 0x92 SWAP2 SWAP1 PUSH2 0x2F3 JUMP JUMPDEST PUSH1 0x40 MLOAD DUP1 SWAP2 SUB SWAP1 RETURN JUMPDEST PUSH0 DUP1 PUSH0 SWAP1 SLOAD SWAP1 PUSH2 0x100 EXP SWAP1 DIV PUSH20 0xFFFFFFFFFFFFFFFFFFFFFFFFFFFFFFFFFFFFFFFF AND PUSH20 0xFFFFFFFFFFFFFFFFFFFFFFFFFFFFFFFFFFFFFFFF AND PUSH4 0x20965255 PUSH1 0x40 MLOAD DUP2 PUSH4 0xFFFFFFFF AND PUSH1 0xE0 SHL DUP2 MSTORE PUSH1 0x4 ADD PUSH1 0x20 PUSH1 0x40 MLOAD DUP1 DUP4 SUB DUP2 DUP7 GAS STATICCALL ISZERO DUP1 ISZERO PUSH2 0x105 JUMPI RETURNDATASIZE PUSH0 DUP1 RETURNDATACOPY RETURNDATASIZE PUSH0 REVERT JUMPDEST POP POP POP POP PUSH1 0x40 MLOAD RETURNDATASIZE PUSH1 0x1F NOT PUSH1 0x1F DUP3 ADD AND DUP3 ADD DUP1 PUSH1 0x40 MSTORE POP DUP2 ADD SWAP1 PUSH2 0x129 SWAP2 SWAP1 PUSH2 0x320 JUMP JUMPDEST SWAP1 POP SWAP1 JUMP JUMPDEST PUSH0 DUP1 SLOAD SWAP1 PUSH2 0x100 EXP SWAP1 DIV PUSH20 0xFFFFFFFFFFFFFFFFFFFFFFFFFFFFFFFFFFFFFFFF AND PUSH20 0xFFFFFFFFFFFFFFFFFFFFFFFFFFFFFFFFFFFFFFFF AND PUSH4 0x7B8D56E3 DUP4 DUP4 PUSH1 0x40 MLOAD DUP4 PUSH4 0xFFFFFFFF AND PUSH1 0xE0 SHL DUP2 MSTORE PUSH1 0x4 ADD PUSH2 0x188 SWAP3 SWAP2 SWAP1 PUSH2 0x34B JUMP JUMPDEST PUSH0 PUSH1 0x40 MLOAD DUP1 DUP4 SUB DUP2 PUSH0 DUP8 DUP1 EXTCODESIZE ISZERO DUP1 ISZERO PUSH2 0x19F JUMPI PUSH0 DUP1 REVERT JUMPDEST POP GAS CALL ISZERO DUP1 ISZERO PUSH2 0x1B1 JUMPI RETURNDATASIZE PUSH0 DUP1 RETURNDATACOPY RETURNDATASIZE PUSH0 REVERT JUMPDEST POP POP POP POP POP POP JUMP JUMPDEST PUSH0 DUP1 SLOAD SWAP1 PUSH2 0x100 EXP SWAP1 DIV PUSH20 0xFFFFFFFFFFFFFFFFFFFFFFFFFFFFFFFFFFFFFFFF AND DUP2 JUMP JUMPDEST PUSH0 DUP2 SWAP1 POP SWAP2 SWAP1 POP JUMP JUMPDEST PUSH2 0x1EE DUP2 PUSH2 0x1DC JUMP JUMPDEST DUP3 MSTORE POP POP JUMP JUMPDEST PUSH0 PUSH1 0x20 DUP3 ADD SWAP1 POP PUSH2 0x207 PUSH0 DUP4 ADD DUP5 PUSH2 0x1E5 JUMP JUMPDEST SWAP3 SWAP2 POP POP JUMP JUMPDEST PUSH0 DUP1 REVERT JUMPDEST PUSH2 0x21A DUP2 PUSH2 0x1DC JUMP JUMPDEST DUP2 EQ PUSH2 0x224 JUMPI PUSH0 DUP1 REVERT JUMPDEST POP JUMP JUMPDEST PUSH0 DUP2 CALLDATALOAD SWAP1 POP PUSH2 0x235 DUP2 PUSH2 0x211 JUMP JUMPDEST SWAP3 SWAP2 POP POP JUMP JUMPDEST PUSH0 DUP1 PUSH1 0x40 DUP4 DUP6 SUB SLT ISZERO PUSH2 0x251 JUMPI PUSH2 0x250 PUSH2 0x20D JUMP JUMPDEST JUMPDEST PUSH0 PUSH2 0x25E DUP6 DUP3 DUP7 ADD PUSH2 0x227 JUMP JUMPDEST SWAP3 POP POP PUSH1 0x20 PUSH2 0x26F DUP6 DUP3 DUP7 ADD PUSH2 0x227 JUMP JUMPDEST SWAP2 POP POP SWAP3 POP SWAP3 SWAP1 POP JUMP JUMPDEST PUSH0 PUSH20 0xFFFFFFFFFFFFFFFFFFFFFFFFFFFFFFFFFFFFFFFF DUP3 AND SWAP1 POP SWAP2 SWAP1 POP JUMP JUMPDEST PUSH0 DUP2 SWAP1 POP SWAP2 SWAP1 POP JUMP JUMPDEST PUSH0 PUSH2 0x2BB PUSH2 0x2B6 PUSH2 0x2B1 DUP5 PUSH2 0x279 JUMP JUMPDEST PUSH2 0x298 JUMP JUMPDEST PUSH2 0x279 JUMP JUMPDEST SWAP1 POP SWAP2 SWAP1 POP JUMP JUMPDEST PUSH0 PUSH2 0x2CC DUP3 PUSH2 0x2A1 JUMP JUMPDEST SWAP1 POP SWAP2 SWAP1 POP JUMP JUMPDEST PUSH0 PUSH2 0x2DD DUP3 PUSH2 0x2C2 JUMP JUMPDEST SWAP1 POP SWAP2 SWAP1 POP JUMP JUMPDEST PUSH2 0x2ED DUP2 PUSH2 0x2D3 JUMP JUMPDEST DUP3 MSTORE POP POP JUMP JUMPDEST PUSH0 PUSH1 0x20 DUP3 ADD SWAP1 POP PUSH2 0x306 PUSH0 DUP4 ADD DUP5 PUSH2 0x2E4 JUMP JUMPDEST SWAP3 SWAP2 POP POP JUMP JUMPDEST PUSH0 DUP2 MLOAD SWAP1 POP PUSH2 0x31A DUP2 PUSH2 0x211 JUMP JUMPDEST SWAP3 SWAP2 POP POP JUMP JUMPDEST PUSH0 PUSH1 0x20 DUP3 DUP5 SUB SLT ISZERO PUSH2 0x335 JUMPI PUSH2 0x334 PUSH2 0x20D JUMP JUMPDEST JUMPDEST PUSH0 PUSH2 0x342 DUP5 DUP3 DUP6 ADD PUSH2 0x30C JUMP JUMPDEST SWAP2 POP POP SWAP3 SWAP2 POP POP JUMP JUMPDEST PUSH0 PUSH1 0x40 DUP3 ADD SWAP1 POP PUSH2 0x35E PUSH0 DUP4 ADD DUP6 PUSH2 0x1E5 JUMP JUMPDEST PUSH2 0x36B PUSH1 0x20 DUP4 ADD DUP5 PUSH2 0x1E5 JUMP JUMPDEST SWAP4 SWAP3 POP POP POP JUMP INVALID LOG2 PUSH5 0x6970667358 0x22 SLT KECCAK256 0xFB 0xD9 RETURNDATACOPY SWAP16 PUSH6 0xC6C87C5DCF64 PUSH1 0x8C CALL 0x1F SDIV 0xB3 ORIGIN 0x4D DUP3 EXP 0xB5 0xF 0xB9 0xE2 PUSH11 0xDE61140877B164736F6C63 NUMBER STOP ADDMOD XOR STOP CALLER "
				},
				"gasEstimates": {
					"creation": {
						"codeDepositCost": "187200",
						"executionCost": "infinite",
						"totalCost": "infinite"
					},
					"external": {
						"getValueFromChild()": "infinite",
						"parent1Contract()": "infinite",
						"setValueFromChild(uint256,uint256)": "infinite"
					}
				},
				"methodIdentifiers": {
					"getValueFromChild()": "9fbdf5f8",
					"parent1Contract()": "c79681f7",
					"setValueFromChild(uint256,uint256)": "b709206b"
				}
			},
			"storageLayout": {
				"storage": [
					{
						"astId": 5,
						"contract": "lab5Exercise/child1.sol:Child1",
						"label": "parent1Contract",
						"offset": 0,
						"slot": "0",
						"type": "t_contract(ParentInterface)58"
					}
				],
				"types": {
					"t_contract(ParentInterface)58": {
						"encoding": "inplace",
						"label": "contract ParentInterface",
						"numberOfBytes": "20"
					}
				}
			},
			"userdoc": {
				"kind": "user",
				"methods": {},
				"version": 1
			}
		}
	}
}